:020000040000FA
:100000000C94DA000C94F6090C94C6090C940201C5
:100010000C9402010C9402010C9402010C94020154
:100020000C9402010C94F4080C9402010C9438080E
:100030000C9402010C9402010C9402010C94020134
:100040000C94EE070C9402010C94BC070C949607D8
:100050000C9402010C9435090C9402010C940201D9
:100060000C9402010C94020100407A10F35A00A093
:10007000724E18090010A5D4E80000E87648170071
:1000800000E40B54020000CA9A3B000000E1F505B1
:10009000000080969800000040420F000000A086FB
:1000A00001000000102700000000E803000000002D
:1000B0006400000000000A000000000001000000D1
:1000C00000002C76D888DC674F0823DFC1DFAE59EB
:1000D000E1B1B796E5E3E453C63AE651997696E87E
:1000E000E6C28426EB898C9B62ED407C6FFCEFBC02
:1000F0009C9F40F2BAA56FA5F490055A2AF75C932D
:100100006B6CF9676DC11BFCE0E40D47FEF520E662
:10011000B500D0ED902E0300943577050080841E45
:10012000080000204E0A000000C80C333333330FA0
:10013000986E12831141EF8D2114893BE65516CF3D
:10014000FEE6DB18D1844B381BF77C1D901DA4BB49
:10015000E424203284725E228100C9F124ECA1E5FE
:100160003D27000000080002010000030407000012
:1001700000000000000000000000250028002B0007
:1001800000000000240027002A00040404040404E2
:100190000404020202020202030303030303010236
:1001A0000408102040800102040810200102040805
:1001B0001020260A11241FBECFEFD8E0DEBFCDBF2E
:1001C00011E0A0E0B1E0EEE9FDE202C005900D9281
:1001D000A637B107D9F723E0A6E7B1E001C01D9229
:1001E000A034B207E1F710E0CAEDD0E004C02197D7
:1001F000FE010E94D514C93DD107C9F70E94A70B83
:100200000C94CD160C9400004F925F926F927F92E7
:100210008F929F92AF92BF92CF92DF92EF92FF9216
:100220000F931F93CF93DF93EC01FC01ED5AFF4F27
:10023000408051806280738020E030E0A901B201EB
:10024000C3010E949914720183011816A4F0FE01E3
:10025000E95AFF4FE080F1800281138120E030E015
:10026000A901B701C8010E94291287FD04C0E12C31
:10027000F12C00E010E0C701D801FE01EE5BFF4F5A
:1002800080839183A283B3833A96C080D18020E09B
:1002900030E0A901B701C8010E942912882339F171
:1002A00020E030E0A901B701C8010E942912FE0137
:1002B00087FF69C0E85BFF4F80819181B601681BB1
:1002C000790B90E080E00E942E124B015C019201BC
:1002D000A301B701C8010E94F1139B01AC01C50144
:1002E000B4010E948F120E946314C61AD70AFE013D
:1002F000EA5BFF4FD182C082DE01DF96EFADEC30CA
:1003000088F511962C91119788E890E0821B91094D
:1003100027FD9395880F991F880F991FC816D90636
:1003200084F012962C9188E592E0821B910927FDBA
:100330009395880F991F880F991FC816D9060CF43A
:10034000C6010297880F991F4FB7F8942E2F30E0FF
:10035000F901EE0FFF1FE20FF31FEF5DFD4F9283D8
:1003600081834FBFDF91CF911F910F91FF90EF904D
:10037000DF90CF90BF90AF909F908F907F906F90C5
:100380005F904F900895E95AFF4F2081318142815B
:100390005381B701C8010E94F1134B015C01FE01BA
:1003A000E65BFF4F608171816C197D0990E080E010
:1003B0000E942E129B01AC01C501B4010E948F1254
:1003C0000E946314C60ED71E92CF90E0FC01E25645
:1003D000FE4F249186579E4FFC018491882399F00B
:1003E00090E0880F991FFC01E058FE4FA591B49151
:1003F000FC01EA58FE4F859194918FB7F894EC91E7
:10040000E22BEC938FBF0895AF92BF92CF92DF9211
:10041000EF92FF920F931F93CF93DF936C017B01B9
:100420008B01040F151FEB015E01AE18BF08C0174A
:10043000D10759F06991D601ED91FC910190F081BD
:10044000E02DC6010995892B79F7C501DF91CF9180
:100450001F910F91FF90EF90DF90CF90BF90AF90E2
:100460000895FC01448155816081718184E891E0A7
:100470000C940402FC01538D448D252F30E0842F11
:1004800090E0821B930B541710F0CF9608950197BC
:100490000895FC01918D828D981761F0A28DAE0FA9
:1004A000BF2FB11D5D968C91928D9F5F9F73928F30
:1004B00090E008958FEF9FEF0895FC01918D828D5C
:1004C000981731F0828DE80FF11D858D90E0089529
:1004D0008FEF9FEF0895FC01918D228D892F90E081
:1004E000805C9F4F821B91098F739927089584E840
:1004F00091E00E946B0221E0892B09F420E0822F19
:10050000089580E090E0892B29F00E947702811104
:100510000C9400000895FC01A48DA80FB92FB11D03
:10052000A35ABF4F2C91848D90E001968F73992729
:10053000848FA689B7892C93A089B1898C91837007
:1005400080648C93938D848D981306C00288F38900
:10055000E02D80818F7D80830895EF92FF920F932D
:100560001F93CF93DF93EC0181E0888F9B8D8C8D5F
:1005700098131AC0E889F989808185FF15C09FB753
:10058000F894EE89FF896083E889F9898081837016
:10059000806480839FBF81E090E0DF91CF911F91C5
:1005A0000F91FF90EF900895F62E0B8D10E00F5FE6
:1005B0001F4F0F731127E02E8C8D8E110CC00FB6BC
:1005C00007FCFACFE889F989808185FFF5CFCE0154
:1005D0000E948B02F1CFEB8DEC0FFD2FF11DE35A42
:1005E000FF4FF0829FB7F8940B8FEA89FB898081D7
:1005F0008062CFCFCF93DF93EC01888D8823B9F051
:10060000AA89BB89E889F9898C9185FD03C080811D
:1006100086FD0DC00FB607FCF7CF8C9185FFF2CF9A
:10062000808185FFEDCFCE010E948B02E9CFDF9163
:10063000CF91089590E0FC01EE59FE4F2491FC010A
:10064000E256FE4F3491FC01E657FE4FE491EE2353
:10065000C9F0222339F0233001F1A8F4213019F137
:10066000223029F1F0E0EE0FFF1FEA58FE4FA5916E
:10067000B4918FB7F894EC91611126C030953E2368
:100680003C938FBF08952730A9F02830C9F024305B
:1006900049F7809180008F7D03C0809180008F7723
:1006A00080938000DFCF84B58F7784BDDBCF84B5A6
:1006B0008F7DFBCF8091B0008F778093B000D2CF39
:1006C0008091B0008F7DF9CF3E2BDACF3FB7F89401
:1006D00080917C0190917D01A0917E01B0917F017C
:1006E00026B5A89B05C02F3F19F00196A11DB11D8D
:1006F0003FBFBA2FA92F982F8827BC01CD01620FC9
:10070000711D811D911D42E0660F771F881F991F83
:100710004A95D1F708952F923F924F925F926F9230
:100720007F928F929F92AF92BF92CF92DF92EF9281
:10073000FF920F931F93CF93DF93CDB7DEB72A9726
:100740000FB6F894DEBF0FBECDBF9A878987DC0154
:1007500053968C9153978D7F53968C93539782FF2A
:10076000C8C096962D903C909797D896ED91FC91A5
:10077000D9978B7F53968C93A985BA8554962C91E3
:10078000549755963C91559756964C915697579637
:100790005C91579758966C91589759967C915997B8
:1007A0005A968C915A975B969C915B9700E10E94B8
:1007B000AA145101C12CD12CE12CF12C00E010E045
:1007C0000E94C31419012A013B014C0154962C9339
:1007D000549755963C92559756964C9356975796E4
:1007E0005C92579758966C93589759967C92599764
:1007F0005A968C935A975B969C925B975C962C9139
:100800005C975D963C915D975E964C915E975F9686
:100810005C915F9790966C91909791967C9191974F
:1008200092968C91929793969C91939700E10E9457
:10083000AA145F01D12CC12CE12CF12C8701E98392
:10084000BA82CB82DC82ED82FE820F831887C12CB4
:10085000D12CE12CF12C00E010E00E94C3145C9636
:100860002C935C975D963C935D975E964C935E9758
:100870005F965C935F9790966C93909791967C931C
:10088000919792968C93929793969C93B10190E056
:1008900080E00E942E1220E030E040EA50E40E9406
:1008A0008F1220E030EC4FE754E40E94F113A98549
:1008B000BA8598966D937D938D939C939B9781E0D9
:1008C0002A960FB6F894DEBF0FBECDBFDF91CF9151
:1008D0001F910F91FF90EF90DF90CF90BF90AF905E
:1008E0009F908F907F906F905F904F903F902F9050
:1008F0000895E985FA8524A035A006A8F7A9E02D7A
:10090000877FA985BA8536CFAF92BF92CF92DF920B
:10091000EF92FF920F931F93CF93DF93EC01862FFB
:10092000A42E2E503109922F9F732881207C292BD1
:1009300020642883262F2F739AAD907C922B90648D
:100940009AAF0E94E5018A2D8F73B82E8EAD807C00
:100950008B2980648EAF8A2D0E94E5018E01015C97
:100960001F4F8FAD8C3008F06EC0FE01E65BFF4F6D
:10097000E080F1803297C080D1808A2D0E94E5010D
:100980008FAD282F30E0F901EE0FFF1FE20FF31FAC
:10099000EF5DFD4F9081907CB92AB08220E232E079
:1009A0002C193D0937FF02C02D5F3F4F3595279524
:1009B00035952795F801218320E639E02E193F0966
:1009C00037FF02C02D5F3F4F359527953595279509
:1009D000F80122832CE0622F0E949E14829FB001B6
:1009E000112430E020E0AB01420F531FFA01EE0F5B
:1009F000FF1FE40FF51FEF5DFD4F908196FD16C0C0
:100A00002F5F3F4F2C30310571F781110FC01092CD
:100A1000800082E080938100109285001092840013
:100A2000B19A80916F00826080936F00EFAD8E2F3E
:100A300090E0FC01EE0FFF1FE80FF91FEF5DFD4F87
:100A40008081806480838AEC8CAF8DAD83608DAFB4
:100A5000CF59DF4F88818170806B88838CEF8983C9
:100A60008FE18A8385E08B8388E28C838D818E7F02
:100A70008D83DF91CF911F910F91FF90EF90DF90C9
:100A8000CF90BF90AF9008952F923F924F925F9278
:100A90006F927F928F929F92AF92BF92CF92DF928E
:100AA000EF92FF920F931F93CF93DF93EC0199B1D5
:100AB0008E859823D9F10E9466038E809F80A8843A
:100AC000B984CA84DB84EC84FD842B013C01481882
:100AD00059086A087B082E803F80B885A985FA8569
:100AE000EB850C851D859201A30160E070E080E03C
:100AF00090E05101CB2EDA2EEF2EFE2E0E94C31471
:100B00002E833F83488759876A877B878C879D8799
:100B100085EC481689E0580661047104E8F01D82EE
:100B20008F8581FF16C08F858D7F8F87DF91CF9155
:100B30001F910F91FF90EF90DF90CF90BF90AF90FB
:100B40009F908F907F906F905F904F903F902F90ED
:100B500008958F858160E9CF8F8581FDE7CFEA8198
:100B6000FB818D8191E0980F9D8395E1899FE00D38
:100B7000F11D1124848982FD06C053864286848932
:100B80008160848BD3CF5586448684898260848B30
:100B9000F6CFFC0101900020E9F73197AF01481B27
:100BA000590BBC0184E891E00C940402CF93DF93CD
:100BB00080E291E00E94C905EC018EE191E00E9483
:100BC000C9058C0F9D1FDF91CF9108950F931F933F
:100BD000CF93DF93EC0188819981009759F02A81A6
:100BE0003B812617370730F081E0DF91CF911F91CD
:100BF0000F9108958B016F5F7F4F0E940016009741
:100C000059F0998388831B830A832C813D81232B90
:100C100059F7FC011082E8CF80E0E7CFCF93DF9354
:100C2000EC0188819981009711F00E947715198253
:100C300018821D821C821B821A82DF91CF91089537
:100C40000F931F93CF93DF93EC010C811D810E5FF7
:100C50001F4FB8010E94E605882391F02881398151
:100C60008C819D8164E671E0820F931F0E94C616FD
:100C70001D830C83CE01DF91CF911F910F910895B9
:100C8000CE010E940E06F6CFEF92FF920F931F93B4
:100C9000CF93DF938C017B01EB0109900020E9F7F2
:100CA0002197C61BD70BBE010E94E605811109C022
:100CB000C801DF91CF911F910F91FF90EF900C949D
:100CC0000E06F801D583C483B70180819181DF913D
:100CD000CF911F910F91FF90EF900C94C6160F9338
:100CE0001F93CF93DF93CDB7DEB761970FB6F8941C
:100CF000DEBF0FBECDBF8C01CB01F8011182108287
:100D000013821282158214824AE0BE016F5F7F4F08
:100D10000E94C80FBE016F5F7F4FC8010E9444064A
:100D200061960FB6F894DEBF0FBECDBFDF91CF91B5
:100D30001F910F910895EF92FF920F931F93CF93FE
:100D4000DF93CDB7DEB7A1970FB6F894DEBF0FBE25
:100D5000CDBF7C01CB01BA01F70111821082138251
:100D60001282158214828E010F5F1F4F22E044E031
:100D70000E949F0F009789F0BC01C7010E944406A2
:100D8000A1960FB6F894DEBF0FBECDBFDF91CF9115
:100D90001F910F91FF90EF900895C7010E940E06DA
:100DA000EFCF0F931F93CF93DF93CDB7DEB7299784
:100DB0000FB6F894DEBF0FBECDBF8C01862FF801B1
:100DC0001182108213821282158214824AE0BE01BF
:100DD0006F5F7F4F90E00E94C80FBE016F5F7F4F33
:100DE000C8010E94440629960FB6F894DEBF0FBED4
:100DF000CDBFDF91CF911F910F9108950F931F9356
:100E0000CF93DF93CDB7DEB762970FB6F894DEBF0E
:100E10000FBECDBF8C01CB01F8011182108213826D
:100E20001282158214824AE0BE016F5F7F4F0E94DA
:100E3000BD0FBE016F5F7F4FC8010E9444066296DE
:100E40000FB6F894DEBF0FBECDBFDF91CF911F91DB
:100E50000F910895EF92FF920F931F93CF93DF931B
:100E6000EC01FB01E080F180E114F10411F1048157
:100E7000158101151105A9F08C819D81080F191F9D
:100E8000B801CE010E94E605882399F028813981B6
:100E90008C819D81B701820F931F0E94C6161D830E
:100EA0000C83CE01DF91CF911F910F91FF90EF90B6
:100EB0000895CE010E940E06F4CFEF92FF920F9399
:100EC0001F93CF93DF93EC017B01198218821B8261
:100ED0001A821D821C82FB0101900020E9F73197E4
:100EE0008F01061B170BB8010E94E605811109C08E
:100EF000CE01DF91CF911F910F91FF90EF900C9455
:100F00000E061D830C83B70188819981DF91CF91F3
:100F10001F910F91FF90EF900C94C616FC018081F9
:100F20009181009711F00C94771508951F920F92FC
:100F30000FB60F9211242F933F934F935F936F93AC
:100F40007F938F939F93AF93BF93EF93FF9384E827
:100F500091E00E948B02FF91EF91BF91AF919F9121
:100F60008F917F916F915F914F913F912F910F9052
:100F70000FBE0F901F9018951F920F920FB60F92F1
:100F800011242F938F939F93EF93FF93E0919401FC
:100F9000F09195018081E0919A01F0919B0182FD91
:100FA0001BC0908180919D018F5F8F7320919E0166
:100FB000821741F0E0919D01F0E0EC57FE4F958FD4
:100FC00080939D01FF91EF919F918F912F910F90B1
:100FD0000FBE0F901F9018958081F4CF1F920F9233
:100FE0000FB60F9211242F933F938F939F93AF933C
:100FF000BF938091780190917901A0917A01B0918D
:101000007B013091770123E0230F2D3758F50196AE
:10101000A11DB11D209377018093780190937901F0
:10102000A0937A01B0937B0180917C0190917D0126
:10103000A0917E01B0917F010196A11DB11D809309
:101040007C0190937D01A0937E01B0937F01BF91BD
:10105000AF919F918F913F912F910F900FBE0F9065
:101060001F90189526E8230F0296A11DB11DD2CF1F
:101070001F920F920FB60F9211242F933F934F930D
:101080005F936F937F938F939F93AF93BF93CF9310
:10109000DF93EF93FF9380917601C0914502D0E0FA
:1010A00087FF24C010928500109284008091760101
:1010B0008F5F8093760180917601082E000C990B4A
:1010C0008C179D0724F4809176018C30C4F18091B7
:1010D000840090918500049680349C4908F47AC07D
:1010E0008091840090918500049676C0809176016D
:1010F000082E000C990B8C179D07C4F6E091760121
:101100008E2FEE0F990BFC01EE0FFF1FE80FF91F5A
:10111000EF5DFD4F808186FFC9CFE09176018E2F74
:10112000EE0F990BFC01EE0FFF1FE80FF91FEF5DAB
:10113000FD4F808160E08F730E941A03B7CF20912A
:10114000840030918500E09176018E2FEE0F990B8F
:10115000FC01EE0FFF1FE80FF91FEF5DFD4F8181CE
:101160009281820F931F9093890080938800E09171
:1011700076018E2FEE0F990BFC01EE0FFF1FE80F8B
:10118000F91FEF5DFD4F808186FF11C0E091760170
:101190008E2FEE0F990BFC01EE0FFF1FE80FF91FCA
:1011A000EF5DFD4F808161E08F730E941A03FF9114
:1011B000EF91DF91CF91BF91AF919F918F917F91EF
:1011C0006F915F914F913F912F910F900FBE0F90B4
:1011D0001F90189580E49CE9909389008093880083
:1011E0008FEF80937601E3CF1F920F920FB60F928D
:1011F00011242F933F934F935F936F937F938F931C
:101200009F93AF93BF93CF93EF93FF939091A702D8
:1012100090FF04C086E492E00E948B0390912B0320
:1012200080FB91F990932B0380910E0380FF05C002
:101230008DEA92E00E948B03C82F80912B03C0FBA4
:1012400081F980932B03FF91EF91CF91BF91AF91E3
:101250009F918F917F916F915F914F913F912F91CE
:101260000F900FBE0F901F9018951F920F920FB600
:101270000F921124CF92DF92EF92FF920F931F9360
:101280002F933F934F935F936F937F938F939F938E
:10129000AF93BF93EF93FF9380912B0382FD74C0B4
:1012A00010917800809179000E9466036B01809113
:1012B0002B0383FF4FC09091AD029F73877F809374
:1012C0002B03E6E4F2E0212F30E0838983FD4BC05D
:1012D00035A324A306A517A520A931A942A953A97E
:1012E00064A975A9C01AD10AD7AAC6AA838982603F
:1012F000838B60917C008081877041E050E09A018F
:1013000001C0220F8A95EAF720952623977001C025
:10131000440F9A95EAF7242B20937C0080912B03AD
:10132000846080932B03FF91EF91BF91AF919F91C8
:101330008F917F916F915F914F913F912F911F916D
:101340000F91FF90EF90DF90CF900F900FBE0F9016
:101350001F901895909146029F73886080932B038D
:10136000EDEAF2E0B0CF37A326A306A517A520A982
:1013700031A942A953A964A975A9C01AD10AD1AE4D
:10138000C0AE8460838BB2CF8B7FCBCF1F920F9286
:101390000FB60F9211242F933F934F935F936F9348
:1013A0007F938F939F93AF93BF93EF93FF9380911E
:1013B000820190918301009741F0DC01ED91FC9155
:1013C0000190F081E02D61E00995FF91EF91BF91CF
:1013D000AF919F918F917F916F915F914F913F91CD
:1013E0002F910F900FBE0F901F9018951F920F9284
:1013F0000FB60F9211242F933F934F935F936F93E8
:101400007F938F939F93AF93BF93EF93FF938091BD
:10141000800190918101009741F0DC01ED91FC91F8
:101420000190F081E02D60E00995FF91EF91BF916F
:10143000AF919F918F917F916F915F914F913F916C
:101440002F910F900FBE0F901F901895CF93DF93A1
:10145000109287011092860188EE93E0A0E0B0E040
:101460008093880190938901A0938A01B0938B01A6
:101470008AE091E0909385018093840185EC90E06F
:10148000909391018093900184EC90E0909393016C
:101490008093920180EC90E0909395018093940169
:1014A00081EC90E0909397018093960182EC90E01C
:1014B000909399018093980186EC90E090939B0122
:1014C00080939A0110929D0110929E0110929F01AB
:1014D0001092A001809145028C3008F030C191E05B
:1014E000980F909345028093850290E0FC01EE0FE7
:1014F000FF1FE80FF91FEF5DFD4F88EB9BE0928324
:1015000081838AEC8093820280918302836080933E
:10151000830280E991E090938F0280938E0288E2AB
:101520009AE090939102809390028CED95E09093D5
:1015300093028093920284E18093940280E090E091
:10154000A4E3B3E48093950290939602A09397024C
:10155000B093980280E090E0A4EBB2EC8093990203
:1015600090939A02A0939B02B0939C0280E090E03B
:10157000A4EBB2E480939D0290939E02A0939F02FD
:10158000B093A0021092A1021092A2021092A302A4
:101590001092A40281E090E09093A6028093A502AD
:1015A0000E946603DC01CB01609374029093750284
:1015B000A0937602B093770210927802109279028B
:1015C00010927A0210927B028091A7028170806B48
:1015D0008093A7028CEF8093A8028FE18093A902E9
:1015E00085E08093AA0288E28093AB028091AC02EE
:1015F0008E7F8093AC02809145028C3008F0A3C0AE
:1016000091E0980F909345028093EC0290E0FC01EA
:10161000EE0FFF1FE80FF91FEF5DFD4F88EB9BE01A
:10162000928381838AEC8093E9028091EA0283604D
:101630008093EA0280E991E09093F6028093F502AC
:1016400088E29AE09093F8028093F7028CED95E09F
:101650009093FA028093F90284E18093FB0280E088
:1016600090E0A4E3B3E48093FC029093FD02A09386
:10167000FE02B093FF0280E090E0A4EBB2EC809316
:10168000000390930103A0930203B093030380E04F
:1016900090E0A4EBB2E48093040390930503A0933D
:1016A0000603B093070310920803109209031092E7
:1016B0000A0310920B0381E090E090930D03809356
:1016C0000C030E946603DC01CB016093DB02909364
:1016D000DC02A093DD02B093DE021092DF021092D2
:1016E000E0021092E1021092E20280910E038170FA
:1016F000806B80930E038CEF80930F038FE18093B8
:10170000100385E08093110388E280931203809197
:1017100013038E7F8093130380912B038860809343
:101720002B038CE191E090932D0380932C03809107
:101730003B03826080933B03DF91CF9108958FEF4D
:1017400080938502DECE8FEF8093EC026BCFCF9338
:10175000DF93CDB7DEB7A3970FB6F894DEBF0FBE09
:10176000CDBF789484B5826084BD84B5816084BD2A
:1017700085B5826085BD85B5816085BD80916E002F
:10178000816080936E001092810080918100826060
:10179000809381008091810081608093810080919D
:1017A00080008160809380008091B100846080938C
:1017B000B1008091B00081608093B00080917A0088
:1017C000846080937A0080917A00826080937A00AE
:1017D00080917A00816080937A0080917A0080689D
:1017E00080937A001092C100E0919401F0919501EC
:1017F00082E08083E0919001F09191011082E0916C
:101800009201F091930180E1808310929C01E0911C
:101810009801F091990186E08083E0919601F09122
:101820009701808180618083E0919601F09197011A
:10183000808188608083E0919601F091970180819A
:1018400080688083E0919601F091970180818F7D7F
:10185000808383E00E94E50187E00E94E50180919A
:101860003003807C88608093300388EA90E00E9497
:10187000DB1480932E0390932F0324E020933A03EC
:10188000FC0188559F4F68EE73E04CED55E020ED6C
:1018900037E07183608355834483338322831682C8
:1018A0001782108611867596E817F90791F78CE272
:1018B00093E09093810180938001809169008C7FF7
:1018C000816080936900E89A2EE030E049E050E0C2
:1018D00065E070E086E492E00E9484042FE030E04E
:1018E0004AE050E066E070E08DEA92E00E948404F5
:1018F00080911403807C98EC909329031092280324
:101900008B608064809314038BE00E94E5018091DA
:10191000460286FF61C08091AD0286FF5DC0809166
:10192000140386FF59C086E492E00E9404018DEA08
:1019300092E00E94040110927A0010927B001092B3
:101940007C0080917C0090914602977021E030E00D
:1019500001C0220F9A95EAF7822B80937C00809138
:101960007C00806480937C0080917C008F7D8093DC
:101970007C0080917A00846080937A0080917A0064
:10198000806280937A0080917A00886080937A00E8
:1019900080917A00806880937A0080917A008064D8
:1019A00080937A00F8941092B0001092B10081EA0E
:1019B0008093B0001092B2001092B30081E0809347
:1019C000B100809170008160809370007894809164
:1019D0002B03816080932B0380913B0380FFC0C069
:1019E00080913B038E7F80933B03809130038F7304
:1019F0008F8F0E946603A0903203B0903303C09093
:101A00003403D0903503E0903603F0903703009113
:101A10003803109139031B012C01612C712C4301F7
:101A20006B8B3C8A8D8B5E8A6F8A788E898E9A8EBC
:101A30009B01AC0160E070E080E090E00E94CC147B
:101A40002035334C4105510561057105810591052E
:101A500011F008F07EC000912E0310912F031B8A15
:101A600019A308A32F8C3B88231409F4D2C1F801D1
:101A7000848980FF68C084898E7F848B848981FFFC
:101A8000A6C1248435843BA22AA284898D7F848BBD
:101A9000F80186859785282FFAA12F1B89F02D5EE6
:101AA000273248F48AA09BA0880E991E1401369410
:101AB00027943BA22AA22AA03BA0F80137862686BB
:101AC000F8012080318084809580428053805C8E34
:101AD0004B8E8685978551018215930528F052011A
:101AE0008415950508F45C01B50190E080E00E9442
:101AF0002E122B013C01B40190E080E00E942E12D6
:101B00006B017C01A814B90408F069C1A30192011A
:101B10000E9484132B013C01B10190E080E00E94FF
:101B20002E129B01AC01C701B6010E9484139B01D8
:101B3000AC01C301B2010E94F1139058F801608B0F
:101B4000718B828B938BFB89FF5FFB8B0B5E1F4F2F
:101B500089CF80913B03826080933B0310923103D5
:101B600080912B0381FF26C18D7F80932B030E94E0
:101B7000D60560915A0270915B02CE0101960E94D7
:101B80006F0666E371E0CE0107960E945D07BE0115
:101B90006F5F7F4FCE0107960E942A070E94310295
:101BA000CE0107960E948E07CE0101960E948E07F5
:101BB0006091C1027091C202CE0101960E946F062F
:101BC0006DE371E0CE0107960E945D07BE016F5F75
:101BD0007F4FCE0107960E942A070E943102CE0154
:101BE00007960E948E07CE0101960E948E074091B3
:101BF0006E0250916F026091700270917102CE017D
:101C000001960E949B0664E471E0CE0107960E9453
:101C10005D07BE016F5F7F4FCE0107960E942A07C6
:101C20000E943102CE0107960E948E07CE010196D6
:101C30000E948E074091D5025091D6026091D70242
:101C40007091D802CE0101960E949B066BE471E070
:101C5000CE0107960E945D07BE016F5F7F4FCE01E8
:101C600007960E942A070E943102CE0107960E9421
:101C70008E07CE0101960E948E0760918102CE01EF
:101C800001960E94D10662E571E0CE0107960E949E
:101C90005D07BE016F5F7F4FCE0107960E942A0746
:101CA0000E943102CE0107960E948E07CE01019656
:101CB0000E948E076091E802CE0101960E94D10633
:101CC00069E571E0CE0107960E945D07BE016F5F76
:101CD0007F4FCE0107960E942A070E943102CE0153
:101CE00007960E948E07CE0101960E948E074091B2
:101CF00088025091890260918A0270918B02CE0114
:101D000001960E949B0660E671E0CE0107960E9454
:101D10005D07BE016F5F7F4FCE0107960E942A07C5
:101D20000E943102CE0107960E948E07CE010196D5
:101D30000E948E074091EF025091F0026091F102F3
:101D40007091F202CE0101960E949B0667E671E057
:101D5000CE0107960E945D07BE016F5F7F4FCE01E7
:101D600007960E942A070E943102CE0107960E9420
:101D70008E07CE0101960E948E0760911503CE0159
:101D800001960E94D1066EE671E0CE0107960E9490
:101D90005D07BE016F5F7F4FCE0107960E942A0745
:101DA0000E943102CE0107960E948E07CE01019655
:101DB0000E948E0780E090E0892B09F40DCE0E94EE
:101DC0007702882309F408CE0E94000005CE84899A
:101DD0008460848B8285938584898B7F58CEAC0107
:101DE0009B01C301B2010E9484132B013C018B8C27
:101DF0009C8CB40190E080E00E942E12A701960115
:101E00000E9484139B01AC01C301B2010E94F11333
:101E100095CE28A039A0232809F4A2CE80913003C2
:101E20008F73F82E0E94D60581E291E00E94C905C9
:101E3000D12CC12C10E000E00F15C8F5E0912E0365
:101E4000F0912F03EC0DFD1D66857785CE0101967F
:101E50000E946F060F5F1F4FB801CE0107960E94C8
:101E6000FE0668E271E0CE010D960E945D07BE019C
:101E7000695F7F4FCE010D960E942A070E942006BF
:101E8000BE016F5F7F4F0E942A070E943102CE0180
:101E90000D960E948E07CE0107960E948E07CE01F6
:101EA00001960E948E0725E1C20ED11CC5CF0E946B
:101EB000D6058CE291E00E94C905D12CC12C10E01E
:101EC00000E00F1508F04CCEE0912E03F0912F03A7
:101ED000EC0DFD1D4089518962897389CE010196FF
:101EE0000E949B060F5F1F4FB801CE0107960E940C
:101EF000FE0668E271E0CE010D960E945D07BE010C
:101F0000695F7F4FCE010D960E942A070E9420062E
:101F1000BE016F5F7F4F0E942A070E943102CE01EF
:101F20000D960E948E07CE0107960E948E07CE0165
:101F300001960E948E0735E1C30ED11CC2CFEF92ED
:101F40000F931F93CF93DF93E80134E047FD34E113
:101F5000042E000C550B57FF03C0519541955109B4
:101F6000E32E022F242FAE010E94E20FCE01DF915B
:101F7000CF911F910F91EF900895BB274A3031F414
:101F8000992322F4BDE2909581959F4F0C94C90F3F
:101F9000BB27FB015527AA27880F991FAA1FA41743
:101FA00010F0A41B83955051B9F7A05DAA3308F037
:101FB000A95DA193009779F7B111B1931192CB016B
:101FC0000C941912A9E0B0E0E8EEFFE00C94531372
:101FD0006A01F22EB02E102FFBE3AF2EA01608F4EC
:101FE0001BE31F5F012F27E0AE014F5F5F4F0E9491
:101FF0004111BC018981982F9970913009F43FC03B
:102000009BE2E1FC04C09E2D9170E0FC3AC05E2D85
:102010005071E82FE87083FF46C084E0911101C041
:1020200083E0EF2DE81B8F1508F0E0E0D6018E2F3E
:1020300020E2552351F1992329F0D6019C93C60142
:1020400001966C0196012D5F3F4FE2FE24C08EE4A5
:10205000D6018C9391E411969C93119712968C93D0
:10206000D9018E2F90E281111BC0E20FF32FF11DD9
:1020700010828EEF9FEF2996ECE00C946F139DE297
:10208000C6CF90E2C4CF2D9381508111FCCFCE0EEC
:10209000D11CE0E0D0CF8EE6D6018C9391E6DBCF69
:1020A0009D938150E0CF482F447082FF3DC084E073
:1020B000911101C083E08F1510F4EF2DE81BD601BC
:1020C0008E2F20E2552309F1992329F0D6019C9304
:1020D000C60101966C0196012D5F3F4FE2FE1BC0C9
:1020E00089E4D6018C938EE411968C93119786E443
:1020F00012968C93D9018E2F90E2882309F4B5CFE4
:102100009D938150FACF2D9381508111FCCFCE0E3B
:10211000D11CE0E0D9CF89E6D6018C938EE61196EA
:102120008C93119786E6E4CF9B0177FF02C030E0E5
:1021300020E0A1E0B0E0911102C0B0E0A0E0F90120
:102140003196AE0FBF1F8B2C912CBB2009F461C0C0
:102150005401EFEFAE1ABE0AAA0DBB1DFA161B06FC
:1021600019F014F04F2D4A1B511188C0E3FC59C0DF
:102170007601A42FB0E2A1114FC0C40ED11C992347
:1021800009F45BC040E0D6011196F60190836D0121
:10219000552309F448C0012F060F9A81582F50711A
:1021A00084FF03C0913309F4015010160CF047C0AE
:1021B000093008F008E0EEE2FE2E5B01A01AB1083B
:1021C00085019194819491082F3F320729F4D6011B
:1021D000FC92F60131966F016217730794F10217B2
:1021E00013077CF5DB01A21BB30BAA24A394B12C2B
:1021F000AC0EBD1EAA0DBB1D11968C91215031094C
:10220000D601119628153905F4F0F60180836D0189
:10221000DBCFB12CA12CA0CFF701B1937F01A1504E
:10222000AACF9111B0CFD601942F50E302C05D9395
:1022300091509111FCCFC40ED11C40E0ACCF01E015
:10224000BACF80E3DBCF6217730731F4963388F49B
:10225000953311F4552369F0F6018083FD01842F35
:1022600090E2811108C0A40FB11D1C9290E080E0A3
:1022700002CF81E3F1CF91938150F3CF911183CFBE
:102280008ACF283008F027E03327DA01990F311D73
:1022900087FD916000966105710539F432602E5F0B
:1022A0003D9330E32A95E1F708959F3F30F0803861
:1022B0007105610509F03C5F3C5F3D93913008F08A
:1022C0008068911DDF93CF931F930F93FF92EF923E
:1022D000192F987F9695E92F96959695E90FFF27E8
:1022E000EE53FF4F99273327EE24FF24A701E70180
:1022F00005900894079428F4360FE71EF81E491F2E
:10230000511D660F771F881F991F0694A1F705902E
:10231000079428F4E70EF81E491F561FC11D770FBA
:10232000881F991F661F0694A1F70590079428F44B
:10233000F80E491F561FC71FD11D880F991F661F12
:10234000771F0694A1F70590079420F4490F561FB4
:10235000C71FD81F990F661F771F881F0694A9F7FC
:1023600084911095177041F0D695C795579547956C
:10237000F794E7941A95C1F7E8E6F0E068941590B1
:10238000159135916591959105907FE27395E118CE
:10239000F10A430B560BC90BD009C0F7E10CF11E33
:1023A000431F561FC91FD01D7EF4703311F48A9548
:1023B000E6CFE894015030F0080F0AF40027021726
:1023C00008F4202F2395022F7A3328F079E37D93A8
:1023D0002A95E9F710C07D932A9589F6069497957A
:1023E0006795379517951794E118F10A430B560B2B
:1023F000C90BD00998F023957E9173957A3308F034
:1024000070E37C932013B8F77E9170617D9330F078
:10241000839571E37D9370E32A95E1F71124EF90A2
:10242000FF900F911F91CF91DF91992787FD909594
:102430000895DC01FC01672F71917723E1F7329752
:1024400004C07C916D9370836291AE17BF07C8F38F
:1024500008950E946B1208F481E00895E89409C081
:1024600097FB3EF490958095709561957F4F8F4FC7
:102470009F4F9923A9F0F92F96E9BB279395F695DD
:10248000879577956795B795F111F8CFFAF4BB0F5B
:1024900011F460FF1BC06F5F7F4F8F4F9F4F16C0BF
:1024A000882311F096E911C0772321F09EE8872F49
:1024B000762F05C0662371F096E8862F70E060E005
:1024C0002AF09A95660F771F881FDAF7880F96957E
:1024D000879597F90895990F0008550FAA0BE0E822
:1024E000FEEF16161706E807F907C0F012161306D6
:1024F000E407F50798F0621B730B840B950B39F416
:102500000A2661F0232B242B252B21F408950A267B
:1025100009F4A140A6958FEF811D811D08950E94A9
:10252000A2120C9413130E94051338F00E940C138E
:1025300020F0952311F00C94FC120C94021311243A
:102540000C9447130E94241370F3959FC1F3950FC9
:1025500050E0551F629FF001729FBB27F00DB11D27
:10256000639FAA27F00DB11DAA1F649F6627B00DB7
:10257000A11D661F829F2227B00DA11D621F739FA0
:10258000B00DA11D621F839FA00D611D221F749FAE
:102590003327A00D611D231F849F600D211D822FF5
:1025A000762F6A2F11249F5750409AF0F1F088231C
:1025B0004AF0EE0FFF1FBB1F661F771F881F915049
:1025C0005040A9F79E3F510580F00C94FC120C94EA
:1025D00047135F3FE4F3983ED4F38695779567956C
:1025E000B795F795E7959F5FC1F7FE2B880F911D73
:1025F0009695879597F9089597F99F6780E870E019
:1026000060E008959FEF80EC089500240A94161668
:10261000170618060906089500240A9412161306D0
:10262000140605060895092E0394000C11F488235E
:1026300052F0BB0F40F4BF2B11F460FF04C06F5F7A
:102640007F4F8F4F9F4F089557FD9058440F551F50
:1026500059F05F3F71F04795880F97FB991F61F024
:102660009F3F79F087950895121613061406551F9B
:10267000F2CF4695F1DF08C0161617061806991F07
:10268000F1CF86957105610508940895E894BB27FC
:1026900066277727CB0197F908952F923F924F92A3
:1026A0005F926F927F928F929F92AF92BF92CF92E2
:1026B000DF92EF92FF920F931F93CF93DF93CDB7EB
:1026C000DEB7CA1BDB0B0FB6F894DEBF0FBECDBF63
:1026D00009942A88398848885F846E847D848C8434
:1026E0009B84AA84B984C884DF80EE80FD800C813D
:1026F0001B81AA81B981CE0FD11D0FB6F894DEBF20
:102700000FBECDBFED0108955058BB27AA270E94E8
:102710009C130C9413130E94051338F00E940C13A1
:1027200020F039F49F3F19F426F40C9402130EF4B0
:10273000E095E7FB0C94FC12E92F0E94241358F358
:10274000BA17620773078407950720F079F4A6F596
:102750000C9446130EF4E0950B2EBA2FA02D0B010E
:10276000B90190010C01CA01A0011124FF27591BD6
:1027700099F0593F50F4503E68F11A16F040A22FDC
:10278000232F342F4427585FF3CF4695379527954D
:10279000A795F0405395C9F77EF41F16BA0B620B4C
:1027A000730B840BBAF09150A1F0FF0FBB1F661F93
:1027B000771F881FC2F70EC0BA0F621F731F841FD6
:1027C00048F4879577956795B795F7959E3F08F0FC
:1027D000B0CF9395880F08F09927EE0F97958795BE
:1027E00008950E9405140C9413130E940C1358F0C2
:1027F0000E94051340F029F45F3F29F00C94FC126D
:1028000051110C9447130C9402130E94241368F383
:102810009923B1F3552391F3951B550BBB27AA2799
:1028200062177307840738F09F5F5F4F220F331FD3
:10283000441FAA1FA9F335D00E2E3AF0E0E832D09B
:1028400091505040E695001CCAF72BD0FE2F29D09E
:10285000660F771F881FBB1F261737074807AB0770
:10286000B0E809F0BB0B802DBF01FF2793585F4FE5
:102870003AF09E3F510578F00C94FC120C944713EB
:102880005F3FE4F3983ED4F3869577956795B795C7
:10289000F7959F5FC9F7880F911D9695879597F9D2
:1028A0000895E1E0660F771F881FBB1F621773074B
:1028B0008407BA0720F0621B730B840BBA0BEE1F60
:1028C00088F7E09508950E946A146894B1110C94F9
:1028D000471308950E942C1388F09F5798F0B92F42
:1028E0009927B751B0F0E1F0660F771F881F991F45
:1028F0001AF0BA95C9F714C0B13091F00E9446138E
:10290000B1E008950C944613672F782F8827B85F9D
:1029100039F0B93FCCF3869577956795B395D9F79C
:102920003EF490958095709561957F4F8F4F9F4FA6
:1029300008950E946B1208F48FEF0895991B79E0B7
:1029400004C0991F961708F0961B881F7A95C9F73F
:1029500080950895002E083090F0982F872F762FBD
:10296000652F542F432F322F22270850F4CF220FE8
:10297000331F441F551F661F771F881F991F0A9515
:10298000B2F7002D08952A0D3B1D4C1D5D1D6E1DD7
:102990007F1D801F911F08952A193B094C095D096D
:1029A0006E097F09800B910B0895EE0FFF1F0590B4
:1029B000F491E02D09940F931F93CF93DF9382300E
:1029C000910510F482E090E0E0913E03F0913F0326
:1029D00030E020E0B0E0A0E0309799F42115310517
:1029E00009F44AC0281B390B24303105D8F58A81F7
:1029F0009B816115710589F1FB0193838283FE013F
:102A000011C0408151810281138148175907E0F0BC
:102A10004817590799F4109761F012960C93129782
:102A200013961C933296CF01DF91CF911F910F9196
:102A3000089500933E0310933F03F4CF2115310511
:102A400051F04217530738F0A901DB019A01BD018B
:102A5000DF01F801C1CFEF01F9CF90933F038093DD
:102A60003E03CDCFFE01E20FF31F819391932250DD
:102A7000310939832883D7CF20913C0330913D031E
:102A8000232B41F4209102013091030130933D0347
:102A900020933C0320910001309101012115310563
:102AA00041F42DB73EB74091040150910501241B1C
:102AB000350BE0913C03F0913D03E217F307A0F4DE
:102AC0002E1B3F0B2817390778F0AC014E5F5F4F84
:102AD0002417350748F04E0F5F1F50933D03409376
:102AE0003C03819391939FCFF0E0E0E09CCFCF93A4
:102AF000DF930097E9F0FC01329713821282A091D4
:102B00003E03B0913F03ED0130E020E01097A1F4C7
:102B100020813181820F931F20913C0330913D032E
:102B20002817390709F061C0F0933D03E0933C0397
:102B3000DF91CF910895EA01CE17DF07E8F54A81CA
:102B40005B819E0141155105B1F7E901FB83EA83E1
:102B500049915991C40FD51FEC17FD0761F480818D
:102B600091810296840F951FE90199838883828160
:102B700093819B838A83F0E0E0E012968D919C9193
:102B800013970097B9F52D913C911197CD010296BD
:102B9000820F931F20913C0330913D032817390782
:102BA00039F6309751F510923F0310923E03B093DF
:102BB0003D03A0933C03BCCFD383C28340815181AA
:102BC000840F951FC817D90761F44E5F5F4F888146
:102BD0009981480F591F518340838A819B81938338
:102BE00082832115310509F0B0CFF0933F03E093C4
:102BF0003E039ECFFD01DC01C0CF13821282D7CFEE
:102C0000B0E0A0E0E6E0F6E10C944F138C010097F1
:102C100051F4CB010E94DB148C01C801CDB7DEB7A3
:102C2000E0E10C946B13FC01E60FF71F9C012250AE
:102C30003109E217F30708F49DC0D901CD91DC9169
:102C40001197C617D70798F0C530D10530F3CE01DC
:102C500004978617970708F3C61BD70B2297C193D3
:102C6000D1936D937C93CF010E947715D6CF5B01F2
:102C7000AC1ABD0A4C018C0E9D1EA0913E03B09172
:102C80003F03512C412CF12CE12C109731F5809110
:102C90003C0390913D038815990509F05CC04616E8
:102CA000570608F058C080910001909101010097EB
:102CB00041F48DB79EB74091040150910501841BEA
:102CC000950BE817F90708F055C0F0933D03E09322
:102CD0003C03F90171836083A0CF8D919C91119782
:102CE00012966C90129713967C901397A815B905BD
:102CF00059F56C0142E0C40ED11CCA14DB0420F16A
:102D0000AC014A195B09DA011296159780F06282CC
:102D1000738251834083D9016D937C93E114F10454
:102D200071F0D7011396FC93EE93129776CF22960B
:102D30008C0F9D1FF90191838083F301EFCFF093F6
:102D40003F03E0933E0369CF4816590608F42C016F
:102D50007D01D3019ACFCB010E94DB147C01009747
:102D600049F0AE01B8010E94BD16C8010E94771556
:102D7000870153CF10E000E050CFFB01DC0102C01F
:102D800001900D9241505040D8F70895FB01DC01AD
:102D900001900D920020E1F70895F894FFCF000014
:102DA0004003800000000000AD0204023A02FA0273
:102DB0006B0249025D020000000044050D0A005745
:102DC000494454483A00204348004652414354493C
:102DD0004F4E3A00204C48533A2000205248533A74
:102DE0002000204C48563A2000205248563A2000F5
:102DF000204C504C3A20002052504C3A2000204C9D
:102E000052413A2000205252413A2000204D4F5466
:042E10003A20000064
:107E0000112484B714BE81FFF0D085E080938100F7
:107E100082E08093C00088E18093C10086E0809377
:107E2000C20080E18093C4008EE0C9D0259A86E02C
:107E300020E33CEF91E0309385002093840096BBD3
:107E4000B09BFECF1D9AA8958150A9F7CC24DD24C4
:107E500088248394B5E0AB2EA1E19A2EF3E0BF2EE7
:107E6000A2D0813461F49FD0082FAFD0023811F036
:107E7000013811F484E001C083E08DD089C08234E0
:107E800011F484E103C0853419F485E0A6D080C0E4
:107E9000853579F488D0E82EFF2485D0082F10E0AE
:107EA000102F00270E291F29000F111F8ED06801E7
:107EB0006FC0863521F484E090D080E0DECF843638
:107EC00009F040C070D06FD0082F6DD080E0C81688
:107ED00080E7D80618F4F601B7BEE895C0E0D1E017
:107EE00062D089930C17E1F7F0E0CF16F0E7DF06D8
:107EF00018F0F601B7BEE89568D007B600FCFDCFD4
:107F0000A601A0E0B1E02C9130E011968C91119780
:107F100090E0982F8827822B932B1296FA010C0160
:107F200087BEE89511244E5F5F4FF1E0A038BF0790
:107F300051F7F601A7BEE89507B600FCFDCF97BE46
:107F4000E89526C08437B1F42ED02DD0F82E2BD052
:107F50003CD0F601EF2C8F010F5F1F4F84911BD097
:107F6000EA94F801C1F70894C11CD11CFA94CF0C13
:107F7000D11C0EC0853739F428D08EE10CD085E9AC
:107F80000AD08FE07ACF813511F488E018D01DD067
:107F900080E101D065CF982F8091C00085FFFCCF94
:107FA0009093C60008958091C00087FFFCCF809118
:107FB000C00084FD01C0A8958091C6000895E0E648
:107FC000F0E098E1908380830895EDDF803219F02E
:107FD00088E0F5DFFFCF84E1DECF1F93182FE3DFCA
:107FE0001150E9F7F2DF1F91089580E0E8DFEE27F6
:047FF000FF270994CA
:027FFE00040479
:00000001FF
